:0A0000000C9450000C9400000C94C6
:10000A0000000C9400000C9400000C9400000C9466
:10001A0000000C9400000C9400000C9400000C9456
:10002A0000000C9400000C9400000C9400000C9446
:10003A0000000C9400000C9400000C9400000C9436
:10004A0000000C9400000C9400001027E8036400E0
:10005A000A000100001000011000010000000D0A52
:10006A0020496E20746865206E616D65206F662078
:10007A00476F640D0A006E756D626572203D20251A
:10008A00303264200A0D00000200040066001800E5
:10009A00600268000000F894EE27ECBBF1E0FBBFB9
:1000AA00EBBFE5BF8DE0A2E0BB27ED938A95E9F7A8
:1000BA0080E098E0A0E6ED930197E9F7E2E9F0E045
:1000CA0085919591009761F0A591B591059015904C
:1000DA00BF01F00105900D920197E1F7FB01F0CF06
:1000EA00EFE5EDBFE8E0EEBFC0E6D2E00C947D009C
:1000FA0010E0E0E0EABBEBBBE7BBE8BBE4BBE5BB77
:10010A00E1E0E1BBE0E0E2BBE3BFE2BFECBFEFBD91
:10011A00EEBDEDBDECBDE7BDE6BDEBBDEABDE9BD9B
:10012A00E8BDE2BDE5BDE4BDE3BDE9BFE5BFE4BFAF
:10013A00EBB9E8E1EAB9E6E8E0BDE0E0E0BDE3E317
:10014A00E9B9E0E8E8B9E0E0E0BFE6B9EDB9E6BF51
:10015A00103021F4A0E6B2E016D011E043B25524E3
:10016A00E0E8F0E0FA93EA93F2010E949D020E940D
:10017A00AA0284E00E9428022696A8EEB3E00E9412
:10018A008B02E6CFFFCFBA93AA931A9310E010E03E
:10019A00A981BA81EE27A10FBE1FEC91E03049F088
:1001AA00A981BA81EE27A10FBE1FAC9104D01F5FAF
:1001BA00EFCF188112C0AA935D9BFECFE881ECB9FC
:1001CA0021960895BA93AA93AA81F5DFA881B981E5
:1001DA00ED91FD913196FE93EE9323960895BA938D
:1001EA00AA9326970E94AF0210E0AC85BD85E0E095
:1001FA00F0E0ED93FC93EA89FB893196EA8BFB8B5D
:10020A003197E4912E2FE03009F415C1E12FE03047
:10021A0039F4253211F411E002C00E9466020AC1C3
:10022A00E130A9F4253219F40E94660202C112E0F3
:10023A0040E000E02D3211F401E0FCC02B3211F451
:10024A004BE2F8C0203211F440E2F4C002C0E230BE
:10025A0039F450E013E0203311F40068EBC003C016
:10026A00E33009F0E7C0203310F02A3308F007C062
:10027A00AAE05A9F502DE22FE0535E0FDBC0E22F17
:10028A00E33649F40E946D02E889F989A481AA93A8
:10029A000E947302CEC0E33741F40E946D020E94AD
:1002AA0079020E944D021E2F0AC0E03761F40E94B3
:1002BA006D020E9479020E9459021E2F0860026094
:1002CA000F7730E034C0E43611F0E93611F40460F7
:1002DA0002C0E53731F4E4E5F0E0EE83FF8315E090
:1002EA000CC0E83511F4086003C0E83709F0A1C072
:1002FA00EEE5F0E0EE83FF8314E002FF14C00E94F3
:10030A006D020E948302AB85AA233AF4EA85FB8533
:10031A000E949902EA87FB874DE2403011F01F5F85
:10032A0001C00B7F04C00E946D020E94830200FD7F
:10033A0011C0151778F407FF08C002FF04C00B7F2D
:10034A00242F115001C020E301C020E20E9466025E
:10035A005150EFCF312F01FF17C03030A1F003FF0A
:10036A0006C0EE81FF812591EE83FF8305C0AE8131
:10037A00BF812D91AE83BF830E946602503009F07F
:10038A0051503150EACF4BC020E3EE81FF810E94E9
:10039A00A602E887F987EE81FF813296EE83FF8312
:1003AA00E885F985AA85BB85AE17BF0750F02F5F90
:1003BA00A885B985EA85FB85EA1BFB0BEA87FB87DB
:1003CA00EFCF2A3328F003FF02C0295F01C0295D5D
:1003DA0004FD1AC0213320F4A885B985119709F4C0
:1003EA0009C0531710F000FF01C013C020E207FF35
:1003FA000BC020E3006102FF07C00B7F4A930E94F3
:10040A007302503009F051500E946602503009F0D0
:10041A0051503150A885B985129708F0B5CF00FF21
:10042A0008C0503031F05150E0E2EA930E94730262
:10043A00F8CF10E0E0CEAC85BD850E94A2020E94F2
:10044A00B60264960895FF92F82E26971A930A9395
:10045A00DE0114960E9495028D01E0E0EC83ED83A3
:10046A00EE83EF83DE0118960E9495020E94A20293
:10047A00FA93EA931A930A93E7EEF0E0FA93EA936F
:10048A00DE011896ACDE198108812896FF9008953E
:10049A00BA93AA93A991B991EE27FF276D91662382
:1004AA0011F03196FBCF0895BA93AA93AA27BB27D6
:1004BA00E991F9910590002011F01196FBCFFD0109
:1004CA0008952A93AD85BE85EF85F8890995089523
:1004DA00E889F9893497E88BF98B0895AD85BE854B
:1004EA00EF85F88909950895A889B98914960E9413
:1004FA00A202EE83FF83AE81BF810895A889B989DC
:10050A0014960E94A202EA87FB870895109639F092
:10051A0080ED97E00197F1F7A8951197C9F708952B
:10052A000024AF0DB01D0895F195E195F0400895AE
:10053A006F2F660F660B762F0895ED91FC91119738
:10054A0008950590F491E02D08957A936A93FA93A9
:10055A00EA9308955A934A933A932A931A930A93D9
:10056A0008955D814C813B812A8119810881089512
:00000001FF
