:0E0000000C942A000C9400000C9400000C9448
:10000E0000000C9400000C9400000C9400000C9462
:10001E0000000C9400000C9400000C9445000C940D
:10002E0000000C9400000C9400000C9400000C9442
:10003E0000000C9400000C9400000C9400000C9432
:10004E0000000C940000F894EE27ECBBF1E0FBBF2F
:10005E00EBBFE5BF8DE0A2E0BB27ED938A95E9F7F4
:10006E0080E098E0A0E6ED930197E9F7EFE5EDBFAC
:10007E00E8E0EEBFC0E6D2E00C94AB000A92EA9341
:10008E00FA93EFB7EA930E94DD00E9B3F0E08F0137
:10009E00002E012A19F42FE330E047C0E1E0F0E032
:1000AE00E017F10719F426E030E03FC0E2E0F0E09F
:1000BE00E017F10719F42BE530E037C0E3E0F0E08C
:1000CE00E017F10719F42FE430E02FC0E4E0F0E080
:1000DE00E017F10719F426E630E027C0E5E0F0E07E
:1000EE00E017F10719F42DE630E01FC0E6E0F0E06E
:1000FE00E017F10719F42DE730E017C0E7E0F0E064
:10010E00E017F10719F427E030E00FC0E8E0F0E067
:10011E00E017F10719F42FE730E007C0E9E0F0E04F
:10012E00E017F10711F42FE630E0EEEFE2BB25BB4E
:10013E00EDEFE2BB25BB0E94E2002496E991EFBFF2
:10014E00F991E99109901895E0E0EABBEBBBE7BBAA
:10015E00E8BBEFEFE4BBE0E0E5BBEFEFE1BBE0E0D7
:10016E00E2BBECE0E3BFE0E0E2BFEFEFECBFE0E0CC
:10017E00EFBDEEBDEDBDECBDE7BDE6BDEBBDEABD31
:10018E00E9BDE8BDE2BDE5BDE4BDE3BDE2E0E9BF2A
:10019E00E0E0E5BFE4BFEAB9E0E8E8B9E0E0E0BFDF
:1001AE00E6B9EDB9E6BF7894FFCFFFCF3A932A9325
:1001BE001A930A9308953B812A8119810881089523
:00000001FF
