:0E0000000C943B000C9400000C947F000C94B8
:10000E0088000C9400000C9400000C9400000C94DA
:10001E009E000C9400000C9400000C9400000C94B4
:10002E0000000C9400000C9400000C9400000C9442
:10003E0000000C9400000C9400000C9400000C9432
:10004E0000000C9400003A170000000054696D6522
:10005E00720080C0060004005400060060025A00C0
:10006E000200660260000000F894EE27ECBBF1E09F
:10007E00FBBFEBBFE5BF8DE0A2E0BB27ED938A95FA
:10008E00E9F780E098E0A0E6ED930197E9F7E2E664
:10009E00F0E085919591009761F0A591B59105904D
:1000AE001590BF01F00105900D920197E1F7FB014C
:1000BE00F0CFEFE5EDBFE8E0EEBFC0E6D2E00C9486
:1000CE00BF006394EAE0E61511F473946624ECE342
:1000DE00E71511F443947724ECE3E41511F45394EB
:1000EE004424E8E1E51519F47724442455240895B1
:1000FE00EA93EFB75524442477246624EFBFE991A1
:10010E0018950A92EA93FA93EFB7EA93082C092806
:10011E0021F4E1E0F0E04F0102C088249924E9E0E7
:10012E005E2EE991EFBFF991E991099018950A9227
:10013E001A92FA926A937A938A939A93AA93BA939B
:10014E00EA93FA93EFB7EA93E1E0F0E0E815F905E8
:10015E0009F4B7DFE991EFBFF991E991B991A9914E
:10016E009991899179916991F990199009901895C1
:10017E00EFEFEABBE0E0EBBBE7BBE8BBE4BBE5BB04
:10018E00E1BBE2BBE3BFE2BFECBFEFBDECE0EEBD17
:10019E00E0E0EDBDECBDE7BDE6BDECE0EBBDE5E3BB
:1001AE00EABDE0E0E9BDE8BDE2BDE5BDE4BDE3BD0D
:1001BE00E0E1E9BFEBB7E06AEBBFE8E0E5BFE0E006
:1001CE00E4BFE0EAEABFE0E0EAB9E0E8E8B9E0E07F
:1001DE00E0BFE6B9EDB9E6BFA0E186D07894E6E0DF
:1001EE00EA93A0E044D0A0E6B2E06DD0E3E0EA935B
:1001FE00A1E03DD0A52DA3D0E4E0A9D0A52DAAD095
:10020E00E6E0A5D0A42D9BD0E7E0A1D0A42DA2D0EE
:10021E00E9E09DD0A72D93D0EAE099D0A72D9AD0F2
:10022E00ECE095D0A62DA05D39D0E0CFFFCFAA93FC
:10023E00EBB3EF70AE2FE881E07FEA2BEBBB8DE0E6
:10024E008A95F1F7DA9A8DE08A95F1F7DA988DE0D2
:10025E008A95F1F772C0AA93A881E9DFE881E29549
:10026E00E883A881E4DF85E88A95F1F766C0AA9352
:10027E00E881F0E0EA59FD4FE081A981AE0FEBDF96
:10028E00B980A88022960895A2E06CD0ACE0E3DF9E
:10029E00A1E068D0E0E0AE2EBE2E0895AA93A8810C
:1002AE00AA3011F0BD1448F0E0E0EA93A394AA2D11
:1002BE00DEDFA881AA3009F440C0B394D89AA88191
:1002CE00CADFD8983AC0BA93AA931A93A981BA8171
:1002DE00ED91A983BA831E2FE03019F0A12FDEDF36
:1002EE00F5CF188123960895AA93EAB3E06FEABB7F
:1002FE00D29AD09AD19ADA98D898D998D880E8819B
:10030E00E058E0936802E881E054E0936902A4E1CA
:10031E00B0E00E94C5012BD02AD029D0A0E287DF01
:10032E0088EC90E00197F1F7A8E295DFA4E093DF67
:10033E00A5E891DFA6E08FDFA7DF21960895B0E054
:10034E00EAE0F0E00E94E601E05DAE2FA7CFEA936F
:10035E00A1E08DCFBB27EAE0F0E00E94EB01E05D6B
:10036E00AE2F9CCF78DFA3E0B0E00C94C501A0E3E4
:10037E005EDF88EC90E00197F1F70895109639F062
:10038E0080ED97E00197F1F7A8951197C9F70895B9
:10039E00F195E195F04008950024112490E1AA0F03
:1003AE00BB1F001C111C0E1A1F0A18F40E0E1F1E66
:1003BE0001C0A1609A9599F7FD01D001089512D060
:1003CE00EBDF0EF4E5DF0895E894B7FF04C0A095C7
:1003DE00B09511966894F7FDDBDFDEDFFD010EF4BC
:1003EE00D7DF0895E894F7FF02C0D2DF6894B7FF15
:1003FE0006C0A095B095119600F8039400FA0895E2
:00000001FF
