:060000000C9457000C9463
:1000060000000C9400000C9400000C9400000C946A
:1000160000000C9400000C9400000C9400000C945A
:1000260000000C9400000C9400000C9400000C944A
:1000360000000C9400000C9400000C9400000C943A
:1000460000000C9400000C9400000C940000102793
:10005600E80364000A00010000100001100001001E
:10006600616C6972657A612073616669000A0D20A8
:100076003D3D3D3D3D20616C6972657A612073614D
:100086006669203D3D3D3D3D0A0D000080C00D00E6
:10009600600266000D006D0266001E007A027300A3
:1000A6000200980292000000F894EE27ECBBF1E003
:1000B600FBBFEBBFE5BFF8E1F1BDE1BD8DE0A2E01E
:1000C600BB27ED938A95E9F780E098E0A0E6ED93EB
:1000D6000197E9F7E4E9F0E085919591009761F0E1
:1000E600A591B59105901590BF01F00105900D926F
:1000F6000197E1F7FB01F0CFEFE5EDBFE8E0EEBFDA
:10010600C0E6D2E00C94870000E0E0E0EBBBEABB7F
:10011600E8BBE7BBE5BBE4BBE2BBE1BBEBB9E8E1AF
:10012600EAB9E6E8E0BDE0E0E0BDE3E3E9B9E0E82E
:10013600E8B9E0E0E0BFA0E1B3D07ED00E94810143
:100146001E2F0F5F183371F40E948C01A0E6B2E0F7
:1001560096D0E0E0EA93A1E062D0ADE6B2E08FD0BF
:100166000CE123C0193321F4AAE7B2E020D01DC068
:10017600133421F40E948C0100E017C0113610F0F0
:100186001B3748F0113410F01B3528F0103310F0EF
:100196001A3308F00AC0013219F401E00E948C01FA
:1001A600A12F56D0A12F0E948501C8CFFFCFBA93A9
:1001B600AA935524A881B981EE27A50DBE1FEC91FF
:1001C600E03051F0A881B981EE27A50DBE1FAC9194
:1001D6000E9485015394EECF2DC0AA93E5B3EF702C
:1001E600AE2FE881E07FEA2BE5BB85E08A95F1F743
:1001F600AA9A8DE08A95F1F7AA988DE08A95F1F78B
:100206000C948A01AA93A881E8DFE881E295E88345
:10021600A881E3DF85E88A95F1F70C948A01AA9311
:10022600E881F0E0E856FD4FE081A981AE0FEADFF4
:100236004980788022960895A2E00E949301ACE05E
:10024600E1DFA1E00E949301E0E07E2E4E2E0895AC
:10025600AA93A881AA3011F0461450F0E0E0EA9380
:100266007394A72DDCDFA881AA3011F40C948A01BF
:100276004394A89AA881C6DFA8980C948A01BA93D9
:10028600AA931A93A981BA81ED91A983BA831E2FE5
:10029600E03019F0A12FDCDFF5CF18812396089501
:1002A600AA93E4B3E06FE4BBA29AA09AA19AAA9893
:1002B600A898A9986880E881E058E0939A02E881B6
:1002C600E054E0939B02A4E1B0E00E94A1010E94E9
:1002D60099010E9499010E949901A0E27EDF88ECB3
:1002E60090E00197F1F7A8E28DDFA4E08BDFA5E8A7
:1002F60089DFA6E087DFA0DF0C948A015F9BFECF33
:10030600ECB10895AA935D9BFECFE881ECB92196E6
:1003160008950E941F01E0E0EA93A0E00C94120108
:100326000E940501A3E0B0E00C94A101A0E30E94A5
:10033600F00088EC90E00197F1F70895109639F0F7
:1003460080ED97E00197F1F7A8951197C9F7089501
:00000001FF
