:100000000C944A000C9400000C9400000C94000026
:100010000C9400000C9400000C9400000C94000060
:100020000C9400000C9400000C9400000C94000050
:100030000C9400000C9400000C9400000C94000040
:100040000C9400000C9400000C9400000C94000030
:100050000C9400001027E80364000A00010000105F
:10006000000110000100416C69004865796461720B
:10007000690080C0040060026600080064026A0033
:1000800004006C026600080070026A000200780238
:1000900072000000F894EE27ECBBF1E0FBBFEBBF71
:1000A000E5BF8DE0A2E0BB27ED938A95E9F780E0FC
:1000B00098E0A0E6ED930197E9F7E4E7F0E0859199
:1000C0009591009761F0A591B59105901590BF01AC
:1000D000F00105900D920197E1F7FB01F0CFEFE5FC
:1000E000EDBFE8E0EEBFC0E6D2E00C947700E0E0C0
:1000F000EBB9E8E1EAB9E6E8E0BDE0E0E0BDE3E362
:10010000E9B9A0E1AED00E945F011E2FA12F0E948D
:100110006301133411F471D029C0183371F4A12F85
:1001200078D06BD0A0E6B2E08BD0E0E0EA93A1E01B
:1001300057D0A4E6B2E084D019C01933B9F46624CC
:100140007724E8E1F0E06E167F0634F40E946A013D
:10015000F30131963F01F5CFACE6B2E009D00E9441
:100160006A01A0E7B2E004D00E946A01CCCFFFCFC1
:10017000BA93AA935524A881B981EE27A50DBE1F75
:10018000EC91E03051F0A881B981EE27A50DBE1F9A
:10019000AC910E9463015394EECF2DC0AA93E5B3B6
:1001A000EF70AE2FE881E07FEA2BE5BB8DE08A950A
:1001B000F1F7AA9A8DE08A95F1F7AA988DE08A95D1
:1001C000F1F70C946801AA93A881E8DFE881E29531
:1001D000E883A881E3DF85E88A95F1F70C9468014C
:1001E000AA93E881F0E0E858FD4FE081A981AE0FC5
:1001F000EADF4980988022960895A2E00E9470016B
:10020000ACE0E1DFA1E00E947001E0E09E2E4E2E06
:100210000895AA93A881AA3011F0481450F0E0E0A4
:10022000EA939394A92DDCDFA881AA3011F40C94F1
:1002300068014394A89AA881C6DFA8980C94680125
:10024000BA93AA931A93A981BA81ED91A983BA832B
:100250001E2FE03019F0A12FDCDFF5CF1881239697
:100260000895AA93E4B3E06FE4BBA29AA09AA19A7E
:10027000AA98A898A9988880E881E058E0937A0223
:10028000E881E054E0937B02A4E1B0E00E947E01AB
:100290000E9476010E9476010E947601A0E27EDF34
:1002A00088EC90E00197F1F7A8E28DDFA4E08BDF06
:1002B000A5E889DFA6E087DFA0DF0C9468015F9BDB
:1002C000FECFECB10895AA935D9BFECFE881ECB917
:1002D00021960895ADE00E946301AAE00C946301A9
:1002E0000E94E300A3E0B0E00C947E01A0E30E9432
:1002F000CE0088EC90E00197F1F70895109639F060
:1003000080ED97E00197F1F7A8951197C9F7089547
:00000001FF
