:060000000C942A000C9490
:1000060000000C9400000C9400000C9400000C946A
:1000160000000C9400000C9400000C9400000C945A
:1000260000000C9445000C9400000C9400000C9405
:1000360000000C9400000C9400000C9400000C943A
:1000460000000C9400000C9400000C940000F8943E
:10005600EE27ECBBF1E0FBBFEBBFE5BF8DE0A2E016
:10006600BB27ED938A95E9F780E098E0A0E6ED934B
:100076000197E9F7EFE5EDBFE8E0EEBFC0E6D2E0B5
:100086000C9483010A921A92FA926A937A938A934B
:100096009A93AA93BA93EA93FA93EFB7EA93EF97F0
:1000A600E1970E94310220E030E0E9B3FF2766279E
:1000B6007727DE01A059BF4FED93FD936D937C9397
:1000C60051D158D10E942D02A1F154D1AFE0B0E038
:1000D60080E090E00E940E02DE01A859BF4FED932A
:1000E600FD936D937C93DE01A859BF4F0D901D9033
:1000F6008D919C91D001AA30E0E0BE07E0E08E072A
:10010600E0E09E071CF43FD1E05D02C03CD1E95C13
:10011600EC93DE01A459BF4F0D901D908D919C91DB
:10012600D001E0E1F0E060E070E00E9409021AD13F
:10013600C8CFEFEDE2BBAC81A03039F0A03329F097
:10014600B0E0A633E1E3BE0719F40FE310E059C0AF
:10015600AC81A13319F406E010E053C0AC81A233A0
:1001660019F40BE510E04DC0AC81A33319F40FE48C
:1001760010E047C0AC81A43319F406E610E041C094
:10018600AC81A53319F40DE610E03BC0AC81A63373
:1001960019F40DE710E035C0AC81A73319F407E078
:1001A60010E02FC0AC81A83319F40FE710E029C086
:1001B600AC81A93319F40FE610E023C0AC81A13459
:1001C60019F407E710E01DC0AC81A23419F40CE75E
:1001D60010E017C0AC81A33419F409E310E011C094
:1001E600AC81A43419F40EE510E00BC0AC81A53443
:1001F60019F409E710E005C0AC81A63411F401E753
:1002060010E005BBA4E1B0E00E94D201EFEEE2BB34
:10021600AD81A03011F0A03319F40FE310E059C0FE
:10022600AD81A13319F406E010E053C0AD81A233CD
:1002360019F40BE510E04DC0AD81A33319F40FE4BA
:1002460010E047C0AD81A43319F406E610E041C0C2
:10025600AD81A53319F40DE610E03BC0AD81A633A0
:1002660019F40DE710E035C0AD81A73319F407E0A6
:1002760010E02FC0AD81A83319F40FE710E029C0B4
:10028600AD81A93319F40FE610E023C0AD81A13486
:1002960019F407E710E01DC0AD81A23419F40CE78C
:1002A60010E017C0AD81A33419F409E310E011C0C2
:1002B600AD81A43419F40EE510E00BC0AD81A53470
:1002C60019F409E710E005C0AD81A63411F401E781
:1002D60010E005BBA4E1B0E00E94D2010E94360204
:1002E600EF96E596E991EFBFF991E991B991A99158
:1002F6009991899179916991F99019900990189538
:10030600E0E0EABBEBBBE7BBE8BBEFEFE4BBE0E05A
:10031600E5BBEFEFE1BBE0E0E2BBECE0E3BFE0E032
:10032600E2BFEFEFECBFE0E0EFBDEEBDEDBDECBD33
:10033600E7BDE6BDEBBDEABDE9BDE8BDE2BDE5BD95
:10034600E4BDE3BDE2E0E9BFE0E0E5BFE4BFEAB952
:10035600E0E8E8B9E0E0E0BFE6B9EDB9E6BF7894D9
:10036600FFCFFFCFDE01A459BF4FED93FD936D93F1
:100376007C930895FE01E459FF4F0190119061911D
:100386007081F0010895F9012F5F3F4FDE01149649
:10039600AE0FBF1FFE01E859FF4FE081089510968A
:1003A60039F080ED97E00197F1F7A8951197C9F715
:1003B6000895F09560957095E195FF4F6F4F7F4FCB
:1003C60008953F934F935F930024112444275527A4
:1003D60030E2AA0FBB1F881F991F001C111C441F67
:1003E600551F0E1A1F0A460B570B28F40E0E1F1E1A
:1003F600461F571F01C0A1603A9559F7FD01BC0180
:10040600D001CA015F914F913F91089510D0D9DF75
:100416000EF4CFDF0895E89477FF02C0CADF689430
:10042600EA23FB23682379230EF4C3DF0895E894B7
:1004360077FF02C0BEDF689497FF0BC00024A0952B
:10044600B095809590951196801D901D00F80394A7
:1004560000FA089530976040704008953A932A93C1
:100466001A930A9308953B812A8119810881089578
:00000001FF
