:020000000C945E
:100002002A000C9400000C9400000C9400000C9444
:1000120000000C9400000C9400000C9400000C945E
:1000220000000C9400000C94B5000C9400000C9499
:1000320000000C9400000C9400000C9400000C943E
:1000420000000C9400000C9400000C9400000C942E
:100052000000F894EE27ECBBF1E0FBBFEBBFE5BF7D
:100062008DE0A2E0BB27ED938A95E9F780E098E066
:10007200A0E6ED930197E9F7EFE5EDBFE8E0EEBF0B
:10008200C0E6D2E00C940F01AA931A930A9300E0FF
:1000920010E0AA81A03039F0A03329F0B0E0A633F5
:1000A200E1E3BE0719F40FE310E059C0AA81A133BE
:1000B20019F406E010E053C0AA81A23319F40BE54B
:1000C20010E04DC0AA81A33319F40FE410E047C039
:1000D200AA81A43319F406E610E041C0AA81A5332F
:1000E20019F40DE610E03BC0AA81A63319F40DE71E
:1000F20010E035C0AA81A73319F407E010E02FC041
:10010200AA81A83319F40FE710E029C0AA81A93304
:1001120019F40FE610E023C0AA81A13419F407E70D
:1001220010E01DC0AA81A23419F40CE710E017C038
:10013200AA81A33419F409E310E011C0AA81A434FE
:1001420019F40EE510E00BC0AA81A53419F409E7F1
:1001520010E005C0AA81A63411F401E710E0F8010D
:1001620019810881239608950A921A92FA926A9343
:100172007A938A939A93AA93BA93EA93FA93EFB7EC
:10018200EA932897E0E0E883E9830E948B01E9B3D0
:10019200F0E08F0108871987E885F9853097C9F063
:1001A200AFE0B0E00E947301EA87FB87AA85BB85B6
:1001B2001A971CF465D0E05D02C062D0E95CEC9352
:1001C200A885B985E0E1F0E00E946E01E887F98731
:1001D200E3CFEFEDE2BBAC8557DF9F0125BBA4E186
:1001E200B0E00E944D01EFEEE2BBAD854DDFAF0105
:1001F20045BBA4E1B0E00E944D010E9492012E96FF
:10020200E991EFBFF991E991B991A99199918991F8
:1002120079916991F990199009901895E0E0EABBFB
:10022200EBBBE7BBE8BBEFEFE4BBE0E0E5BBEFEF26
:10023200E1BBE0E0E2BBECE0E3BFE0E0E2BFEFEF16
:10024200ECBFE0E0EFBDEEBDEDBDECBDE7BDE6BD50
:10025200EBBDEABDE9BDE8BDE2BDE5BDE4BDE3BD80
:10026200E2E0E9BFE0E0E5BFE4BFEAB9E0E8E8B90F
:10027200E0E0E0BFE6B9EDB9E6BF7894FFCFFFCF8B
:10028200EE81FF813196EE83FF833197DE011C966A
:10029200AE0FBF1FEA850895109639F080ED97E002
:1002A2000197F1F7A8951197C9F70895F195E1958E
:1002B200F04008950024112490E1AA0FBB1F001CF6
:1002C200111C0E1A1F0A18F40E0E1F1E01C0A16087
:1002D2009A9599F7FD01D00108950ED0EBDF0EF447
:1002E200E5DF0895E894F7FF02C0E0DF6894EA23AF
:1002F200FB230EF4DBDF0895E894F7FF02C0D6DF9C
:100302006894B7FF06C0A095B095119600F80394C3
:1003120000FA08955A934A933A932A931A930A93A6
:1003220008955D814C813B812A811981088108955C
:00000001FF
