:060000000C9454000C9466
:1000060000000C9400000C9400000C9400000C946A
:1000160000000C9400000C9400000C9400000C945A
:1000260000000C9400000C9400000C9400000C944A
:1000360000000C9400000C9400000C9400000C943A
:1000460000000C9400000C9400000C940000102793
:10005600E80364000A00010000100001100001001E
:100066000A0D600270024D6F68616D6D6164205308
:100076006164656768004B6861766172690020009B
:1000860080C0100060026C00080070027C00020054
:100096007802840006000400660002007A028600E8
:1000A6000000F894EE27ECBBF1E0FBBFEBBFE5BF29
:1000B600F8E1F1BDE1BD8DE0A2E0BB27ED938A95A5
:1000C600E9F780E098E0A0E6ED930197E9F7E8E824
:1000D600F0E085919591009761F0A591B591059015
:1000E6001590BF01F00105900D920197E1F7FB0114
:1000F600F0CFEFE5EDBFE8E0EEBFC0E6D2E00C944E
:100106008B00A42D0E948E01A52D0E948E010895BC
:10011600E0E0EBBBEABBE8BBE7BBE5BBE4BBE2BBAD
:10012600E1BBE3BFE2BFECBFEFBDEEBDEDBDECBD95
:10013600E7BDE6BDEBBDEABDE9BDE8BDE2BDE5BD97
:10014600E4BDE3BDE5BFE4BFE9BFEBB9E8E1EAB969
:10015600E6E8E0BDE0E0E0BDE3E3E9B9E0E8E8B900
:10016600E0E0E0BFE6B9EDB9E6BFA0E1A1D00E94AC
:100176008A011E2FA12F0E948E01E12FF0E0E533A8
:10018600A0E0FA0769F464D0E0E0EA93A0E053D077
:10019600D30183D0E0E0EA93A1E04DD0D40126C09C
:1001A600E733A0E0FA0711F453D021C0E633A0E00C
:1001B600FA0769F4A6DFD3010E949501A8E7B2E029
:1001C6000E949501D4010E9495019BDF10C021E198
:1001D60030E01B3710F4113608F402C0D9015DD0A7
:1001E6001B3510F4113408F402C0D90156D0BFCF24
:1001F600FFCFAA93E5B3EF70AE2FE881E07FEA2B3D
:10020600E5BB85E08A95F1F7AA9A8DE08A95F1F724
:10021600AA988DE08A95F1F70C949301AA93A88188
:10022600E8DFE881E295E883A881E3DF85E88A953F
:10023600F1F70C949301AA93E881F0E0E658FD4F9C
:10024600E081A981AE0FEADFD980C88022960895A1
:10025600A2E00E94A301ACE0E1DFA1E00E94A301BD
:10026600E0E0CE2EDE2E0895AA93A881AA3021F0D2
:10027600E0917E02DE1650F0E0E0EA93C394AC2DE6
:10028600DADFA881AA3011F40C949301D394A89ACA
:10029600A881C4DFA8980C949301BA93AA931A93E1
:1002A6000E94A90119F0A12FDFDFFACF0C94A0015B
:1002B600AA93E4B3E06FE4BBA29AA09AA19AAA9883
:1002C600A898A998E881E0937E02E058E0937C0222
:1002D600E881E054E0937D02A4E1B0E00E94B90118
:1002E6000E94B1010E94B1010E94B101A0E281DF2A
:1002F60088EC90E00197F1F7A8E290DFA4E08EDFAA
:10030600A5E88CDFA6E08ADFA3DF0C9493015F9B50
:10031600FECFECB10895AA935D9BFECFE881ECB9C0
:1003260021960895BA93AA931A930E94A90119F0E7
:10033600A12FF1DFFACFAAE0EEDF18812396089508
:100346000E941101A3E0B0E00C94B901A981BA8121
:10035600ED91A983BA831E2FE0300895A0E30E9491
:10036600FC0088EC90E00197F1F70895109639F0BB
:1003760080ED97E00197F1F7A8951197C9F70895D1
:00000001FF
