:020000000C945E
:1000020048000C9400000C9400000C9400000C9426
:1000120000000C9400000C9400000C9400000C945E
:1000220000000C9400000C9478000C9400000C94D6
:1000320000000C9400000C9400000C9400000C943E
:1000420000000C9400000C9400000C9400000C942E
:100052000000303132333435363738394142434487
:1000620045463F065B4F666D7D077F6F777C395E45
:1000720079710000000000000000100062025400CC
:100082001000720264000800060074000000F89478
:10009200EE27ECBBF1E0FBBFEBBFE5BFF8E1F1BD42
:1000A200E1BD8DE0A2E0BB27ED938A95E9F780E000
:1000B20098E0A0E6ED930197E9F7ECE7F0E085918F
:1000C2009591009761F0A591B59105901590BF01AA
:1000D200F00105900D920197E1F7FB01F0CFEFE5FA
:1000E200EDBFE8E0EEBFC0E6D2E00C948B00EA93ED
:1000F200FA93EFB7EA93F20131962F01E2E0F0E0D2
:10010200E415F50511F444245524E991EFBFF99162
:10011200E9911895E0E0E5BBEFEFE4BBE1BBECE071
:10012200E3BFE0E0E2BFE3E6ECBFE2E1E9BF7894DF
:100132002297E9B3F0E0E883F983C89B03C0D1D0EA
:100142003196D4D0C99B03C0CCD03296CFD0CA9BB3
:1001520003C0C7D03496CAD0CB9B03C0C2D0389656
:10016200C5D0CC9B03C0BDD07096C0D0CD9B03C080
:10017200B8D0B096BBD0CE9B04C0B3D0E05CFF4FEA
:10018200B5D0CF9B04C0ADD0E058FF4FAFD0B3D0B5
:100192000E94B0015F01AFD00E9498016F018824D4
:1001A20099249FD0E0938402F0938502E091840227
:1001B200F09185023097F1F0EF70F0703F01F40199
:1001C200E05AFD4F0F01A2E6B2E0A60DB71DEC9179
:1001D200D001EC93A0918402B0918502E0E1F0E0BD
:1001E2000E94AB01E0938402F0938502F401319600
:1001F2004F01DCCF042C052881F5EEEFE2BBE09144
:10020200610280D0A0916102A13419F4E0917C02D4
:1002120022C0A0916102A23419F4E0917D021BC0B8
:10022200A0916102A33419F4E0917E0214C0A0915E
:100232006102A43419F4E0917F020DC0A091610221
:10024200A53419F4E091800206C0A0916102A6349F
:1002520019F4E0918102E5BB34C0E1E0F0E0E4157D
:10026200F50579F5EDEFE2BBE09160024BD0A0918C
:100272006002A13419F4E0917C0222C0A0916002D4
:10028200A23419F4E0917D021BC0A0916002A33454
:1002920019F4E0917E0214C0A0916002A43419F412
:1002A200E0917F020DC0A0916002A53419F4E091A3
:1002B200800206C0A0916002A63419F4E091810286
:1002C200E5BBA5E0B0E00E948A01E0E0E093820293
:1002D200E0938302E0936002E0936102229628CFCA
:1002E200FFCFE0918202F09183020895E0938202AF
:1002F200F09383020895A0918202B0918302EAE012
:10030200F0E00895F0E0F097EE58FD4FE081E5BB94
:100312000895109639F080ED97E00197F1F7A895CE
:100322001197C9F70895F195E195F04008950024D9
:10033200112490E1AA0FBB1F001C111C0E1A1F0AE8
:1003420018F40E0E1F1E01C0A1609A9599F7FD01C7
:10035200D001089507D0EBDF0EF4E5DF0895E7DF63
:10036200FD010895E894F7FF02C0DDDF6894B7FF4E
:1003720006C0A095B095119600F8039400FA08956E
:00000001FF
