:020000000C945E
:1000020045000C9400000C9400000C9400000C9429
:1000120000000C9400000C9400000C9400000C945E
:1000220000000C9400000C9400000C9400000C944E
:1000320000000C9400000C9400000C9400000C943E
:1000420000000C9400000C9400000C9400000C942E
:1000520000001027E80364000A00010000100001FC
:10006200100001004B6F646569726900536172612F
:100072000053617261204B6F64656972690080C0D0
:100082000200600280000000F894EE27ECBBF1E071
:10009200FBBFEBBFE5BFF8E1F1BDE1BD8DE0A2E042
:1000A200BB27ED938A95E9F780E098E0A0E6ED930F
:1000B2000197E9F7E2E8F0E085919591009761F008
:1000C200A591B59105901590BF01F00105900D9293
:1000D2000197E1F7FB01F0CFEFE5EDBFE8E0EEBFFE
:1000E200C0E6D2E00C9475006A978AE1A0E0B0E025
:1000F200E6E6F0E00E94C201E0E0EABBEBBBE7BB50
:10010200E8BBE4BBE5BBE1BBE2BBE3BFE2BFECBFE4
:10011200EFBDEEBDEDBDECBDE7BDE6BDEBBDEABD9D
:10012200E9BDE8BDE2BDE5BDE4BDE3BDE9BFE5BFB4
:10013200E4BFEBB9E8E1EAB9E6E8E0BDE0E0E0BD42
:10014200E3E3E9B9E0E8E8B9E0E0E0BFE6B9EDB938
:10015200E6BFA0E1A5D00E947F011E2FA12FBB27E1
:10016200A134E0E0BE0734F0A12FBB27AB35E0E0BD
:10017200BE076CF0A12FBB27A136E0E0BE0734F02A
:10018200A12FBB27AB37E0E0BE070CF007C0A12FC1
:100192000E948301A12F62D00E949801153389F435
:1001A2000E949E014FD0E0E0EA93A0E03ED0DE0143
:1001B20018966BD0E0E0EA93A1E037D0DE0165D07B
:1001C20010C0163349F40E949E01DE011D960E9462
:1001D2008A010E94980105C0173319F40E949E01FA
:1001E20031D0B9CFFFCFAA93E5B3EF70AE2FE8813C
:1001F200E07FEA2BE5BB85E08A95F1F7AA9A8DE0CC
:100202008A95F1F7AA988DE08A95F1F70C94880106
:10021200AA93A881E8DFE881E295E883A881E3DF79
:1002220085E88A95F1F70C948801AA93E881F0E0B9
:10023200E05AFD4FE081A981AE0FEADF5980488084
:1002420022960895A2E00E94A201ACE0E1DFA1E0C3
:100252000E94A201E0E04E2E5E2E0895AA93A8818C
:10026200AA3011F0571450F0E0E0EA934394A42D21
:10027200DCDFA881AA3011F40C9488015394A89A67
:10028200A881C6DFA8980C948801BA93AA931A93FE
:100292000E94A80119F0A12FE1DFFACF0C94950179
:1002A200AA93E4B3E06FE4BBA29AA09AA19AAA9897
:1002B200A898A9987880E881E058E0936202E881E2
:1002C200E054E0936302A4E1B0E00E94B8010E940E
:1002D200B0010E94B0010E94B001A0E284DF88EC6C
:1002E20090E00197F1F7A8E293DFA4E091DFA5E89F
:1002F2008FDFA6E08DDFA6DF0C9488015F9BFECF27
:10030200ECB10895AA935D9BFECFE881ECB92196EA
:100312000895BA93AA931A930E94A80119F0A12FE3
:10032200F1DFFACFAAE0EEDF188123960895ADE05F
:100332000E948301AAE00C948301A12F0E948301F1
:10034200F6CF0E940901A3E0B0E00C94B801A981A4
:10035200BA81ED91A983BA831E2FE0300895A0E3FC
:100362000E94F40088EC90E00197F1F7089510964E
:1003720039F080ED97E00197F1F7A8951197C9F749
:100382000895AC0FBD1F05900D928A95E1F708956F
:00000001FF
