:020000000C945E
:100002003D000C9400000C9400000C9400000C9431
:1000120000000C9400000C9400000C946A000C94F4
:1000220000000C9400000C9400000C9400000C944E
:1000320000000C9400000C9400000C9400000C943E
:1000420000000C9400000C9400000C9400000C942E
:1000520000000000416C6972657A6120417A697A18
:10006200690080C00100050054000E0060025600C5
:1000720002006E0264000000F894EE27ECBBF1E08F
:10008200FBBFEBBFE5BF8DE0A2E0BB27ED938A95F6
:10009200E9F780E098E0A0E6ED930197E9F7E6E65C
:1000A200F0E085919591009761F0A591B591059049
:1000B2001590BF01F00105900D920197E1F7FB0148
:1000C200F0CFEFE5EDBFE8E0EEBFC0E6D2E00C9482
:1000D2008E000A921A92FA926A937A938A939A9368
:1000E200AA93BA93EA93FA93EFB7EA935394E52D5E
:1000F200F0E0AFE1B0E00E9497015E2EB4D0E9914A
:10010200EFBFF991E991B991A99199918991799169
:100112006991F99019900990189500E010E020E09B
:1001220030E040E050E0E0E0EABBEBBBE7BBE8BB1D
:10013200E4BBE5BBEFEFE1BBE0E0E2BBE3BFE2BF64
:10014200ECBFEFBDECE0EEBDE0E0EDBDECBDE7BD28
:10015200E6BDEAE7EBBDE2E1EABDE0E0E9BDE8BD0C
:10016200E2BDE5BDE4BDE3BDE0E1E9BFE0E0E5BF3E
:10017200E4BFEAB9E0E8E8B9E0E0E0BFE6B9EDB92A
:10018200E6BFA0E18ED078942297E0E6F2E0E88321
:10019200F98300E010E00D30E0E01E0784F5EFE0A7
:1001A200F0E0E01BF10BDF01E52DF0E0AE1BBF0B31
:1001B2009D0140E050E0332322F40024041605069A
:1001C20009F004C041E050E0205F3F4F33232AF49E
:1001D200E1E0F0E0E417F50709F004C040E050E088
:1001E200205F3F4F2A93A42F31D0F801A881B98113
:1001F200AE0FBF1FAC9141D00F5F1F4FCCCFA4E613
:10020200B0E00E9489012296BFCFFFCFAA93E2B34A
:10021200EF70AE2FE881E07FEA2BE2BB8DE08A959A
:10022200F1F7929A8DE08A95F1F792988DE08A958E
:10023200F1F760C0AA93A881E9DFE881E295E8833B
:10024200A881E4DF85E88A95F1F754C0AA93E88192
:10025200F0E0E259FD4FE081A981AE0FEBDF49806A
:10026200788022960895A2E047D0ACE0E3DFA1E0D7
:1002720043D0E0E07E2E4E2E0895AA93A881AA30A4
:1002820011F0461440F0E0E0EA937394A72DDEDF0C
:10029200A881AA3079F14394909AA881CBDF9098F3
:1002A20029C0AA93E1B3E06FE1BB8A9A889A899A3E
:1002B2009298909891986880E881E058E093700253
:1002C200E881E054E0937102A4E1B0E00E94890168
:1002D20018D017D016D0A0E299DF88EC90E00197F1
:1002E200F1F7A8E2A7DFA4E0A5DFA5E8A3DFA6E077
:1002F200A1DFB9DF219608959DDFA3E0B0E00C9461
:100302008901A0E383DF88EC90E00197F1F708957B
:10031200109639F0A89580ED97E00197F1F71197C3
:10032200C9F70895F195E195F0400895E894F7FF33
:1003320002C0F8DF6894EA23FB230EF4F3DF08958A
:00000001FF
