:0C0000000C943D000C9400000C940000D7
:10000C000C9400000C9400000C9400000C94000064
:10001C000C946A000C9400000C9400000C940000EA
:10002C000C9400000C9400000C9400000C94000044
:10003C000C9400000C9400000C9400000C94000034
:10004C000C9400000C940000000069646E617261F5
:10005C0059206D617961500080C001000500540089
:10006C000E006002560002006E0264000000F8945C
:10007C00EE27ECBBF1E0FBBFEBBFE5BF8DE0A2E0F0
:10008C00BB27ED938A95E9F780E098E0A0E6ED9325
:10009C000197E9F7E6E6F0E085919591009761F01C
:1000AC00A591B59105901590BF01F00105900D92A9
:1000BC000197E1F7FB01F0CFEFE5EDBFE8E0EEBF14
:1000CC00C0E6D2E00C948B000A921A92FA926A93D0
:1000DC007A938A939A93AA93BA93EA93FA93EFB783
:1000EC00EA935394E0E2E51509F45524ABD0E99179
:1000FC00EFBFF991E991B991A99199918991799170
:10010C006991F990199009901895229700E612E0E0
:10011C00E0E0EABBEBBBE7BBE8BBEFEFE4BBE0E046
:10012C00E5BBEFEFE1BBE0E0E2BBE3BFE2BFECBF5E
:10013C00EFBDECE0EEBDE0E0EDBDECBDE7BDE6BD36
:10014C00EAE7EBBDE2E1EABDE0E0E9BDE8BDE2BD16
:10015C00E5BDE4BDE3BDE0E1E9BFE0E0E5BFE4BF40
:10016C00EAB9E0E8E8B9E0E0E0BFE6B9EDB9E6BF2E
:10017C00A0E186D0789420E030E02D30E0E03E071E
:10018C0074F5E52DF0E0AFE0B0E00E948701EA1BCA
:10019C00FB0BE21BF30BAF01E0E0E883E983552393
:1001AC002AF4E0EFFFEFE417F5070CF007C0405F0F
:1001BC005F4FE1E0F0E0E883F98306C0403FEFEFEA
:1001CC005E0714F4405E5F4F4A93A9812ED0F9016B
:1001DC00E00FF11FA08140D02F5F3F4FCECFA2E3A5
:1001EC00B0E00E947D01C7CFFFCFAA93E2B3EF70BE
:1001FC00AE2FE881E07FEA2BE2BB8DE08A95F1F728
:10020C00929A8DE08A95F1F792988DE08A95F1F7A4
:10021C0060C0AA93A881E9DFE881E295E883A88110
:10022C00E4DF85E88A95F1F754C0AA93E881F0E001
:10023C00E259FD4FE081A981AE0FEBDF4980788058
:10024C0022960895A2E047D0ACE0E3DFA1E043D0D2
:10025C00E0E07E2E4E2E0895AA93A881AA3011F0CC
:10026C00461440F0E0E0EA937394A72DDEDFA881FA
:10027C00AA3079F14394909AA881CBDF909829C049
:10028C00AA93E1B3E06FE1BB8A9A889A899A929813
:10029C00909891986880E881E058E0937002E8812A
:1002AC00E054E0937102A4E1B0E00E947D0118D00B
:1002BC0017D016D0A0E299DF88EC90E00197F1F707
:1002CC00A8E2A7DFA4E0A5DFA5E8A3DFA6E0A1DFF5
:1002DC00B9DF219608959DDFA3E0B0E00C947D0179
:1002EC00A0E383DF88EC90E00197F1F70895109676
:1002FC0039F080ED97E00197F1F7A8951197C9F7C0
:10030C0008951B2EBF2FF12D1A2EAE2FE12D08951F
:00000001FF
