:0A0000000C944E000C9400000C94C8
:10000A0000000C9400000C9400000C9400000C9466
:10001A0000000C9400000C9400000C9400000C9456
:10002A0000000C9400000C9400000C9400000C9446
:10003A0000000C9400000C9400000C9400000C9436
:10004A0000000C9400000C94000000004B4559502D
:10005A00414420414E44204C43440050524F4A45AB
:10006A004354000080C001002D4E414E00494E46C7
:10007A0000000F006002560008006F0265000200CF
:10008A0006005400020088026E0001008C02700013
:10009A000000F894EE27ECBBF1E0FBBFEBBFE5BF35
:1000AA00F8E1F1BDE1BD8DE0A2E0BB27ED938A95B1
:1000BA00E9F780E098E0A0E6ED930197E9F7ECE72D
:1000CA00F0E085919591009761F0A591B591059021
:1000DA001590BF01F00105900D920197E1F7FB0120
:1000EA00F0CFEFE5EDBFE8E0EEBFC0E6D2E00C945A
:1000FA007E00EFEFEABBE0EFE7BBE0E0EBBBA0E19D
:10010A0073D140D1E1E0EA93A0E02FD1A0E6B2E0BA
:10011A005AD1E5E0EA93A1E028D1AFE6B2E053D1A3
:10012A00A0EDB7E00E94CA032DD1AED01E2F1F3F0B
:10013A0011F40C944701A8D0EF3FE9F70E9441035C
:10014A001A3031F4A5E20E944503E5E25E2E9AC018
:10015A001B3031F4AAE20E944503EAE25E2E92C005
:10016A001D3031F4ADE20E944503EDE25E2E8AC0F5
:10017A001C3031F4ABE20E944503EBE25E2E82C0F2
:10018A001E30E9F5ADE30AD1E5E2E51529F40E944E
:10019A004B030E94180517C0EAE2E51529F40E94EC
:1001AA004B030E94CA040FC0EDE2E51529F40E9430
:1001BA004B030E945C0307C0EBE2E51561F40E9461
:1001CA004B030E947A04E0937F02F09380026093CB
:1001DA00810270938202E0917F02F0918002609125
:1001EA008102709182020E94AE05E2E0EA93A3E8DE
:1001FA00B2E00E942502A3E8B2E0E5D043C01F3076
:10020A00D1F4C0D0E0E0EA93A0E0AFD0EFE7F2E0AB
:10021A000E946103EBE7F2E00E946103E0E0E093F1
:10022A007702E0937802E0937902E0937A02552408
:10023A006624772427C0A12FA05DB0D00E9468034E
:10024A00FF93EF93DF010E948F05A0E0B0E080E208
:10025A0091E40E94CA04AF91BF910E9495050E9441
:10026A006803FF93EF93DF010E948F05DF01CB0143
:10027A00E12FF0E00E9470030E947A04AF91BF91CF
:10028A000E94950552CFFFCF1A931FEFC49AC598C3
:10029A000E947503B09B02C017E00AC0B19B02C05E
:1002AA0018E006C0B29B02C019E002C0B3991AE076
:1002BA00C498C59A0E947503B09B02C014E00AC094
:1002CA00B19B02C015E006C0B29B02C016E002C094
:1002DA00B3991BE0C498C598C69AC7980E947B0335
:1002EA00B09B02C011E00AC0B19B02C012E006C076
:1002FA00B29B02C013E002C0B3991DE0C498C5982E
:10030A00C698C79A0E947B03B09B02C01FE00AC02E
:10031A00B19B02C010E006C0B29B02C01EE002C040
:10032A00B3991CE0E12F19910895AA93EBB3EF70EA
:10033A00AE2FE881E07FEA2BEBBB85E08A95F1F7E7
:10034A00DA9A8DE08A95F1F7DA988DE08A95F1F7D5
:10035A0075C0AA93A881E9DFE881E295E883A881BC
:10036A00E4DF85E88A95F1F769C0AA93E881F0E0AD
:10037A00E857FD4FE081A981AE0FEBDF49809880F5
:10038A0022960895A2E00E947F03ACE0E2DFA1E09A
:10039A000E947F03E0E09E2E4E2E0895AA93A88124
:1003AA00AA3011F0481448F0E0E0EA939394A92D9A
:1003BA00DCDFA881AA3009F441C04394D89AA88105
:1003CA00C8DFD8983BC0BA93AA931A93A981BA8175
:1003DA00ED91A983BA831E2FE03019F0A12FDEDF39
:1003EA00F5CF188123960895AA93EAB3E06FEABB82
:1003FA00D29AD09AD19ADA98D898D9988880E881EE
:10040A00E058E0938A02E881E054E0938B020E946C
:10041A0041030E9485030E9485030E948503A0E28E
:10042A0084DF88EC90E00197F1F7A8E292DFA4E07C
:10043A0090DFA5E88EDFA6E08CDFA4DF2196089581
:10044A00BA93AA932497E0E0E883E983EA83EFE387
:10045A00EB831A930A93EB85FC85EF3FAFEFFA071C
:10046A0039F40E948D03A2E7B0E00E943403ABC0C6
:10047A00EF3FAFE7FA0739F40E948D03A3E7B0E034
:10048A000E943403A0C0AC85AA2362F4E985FA85E8
:10049A006B857C850E94D4030E9492030E94970375
:1004AA00EDE2EC93A885A73010F0E6E0E88718851E
:1004BA00E12F1150E03039F00E949E030E94A303FD
:1004CA000E94AA03F5CF0E94AF030E947A040E94F9
:1004DA00920310E0E0E0F0E060E87FE30E94AA0304
:1004EA000E94AF030E945D0588F00E949E030E944D
:1004FA00B8030E94AA031F5F173238F00E948D03C7
:10050A00A7E7B0E00E9434035EC0EACF103029F4B6
:10051A000E949703E0E3EC932CC0E12F1150E030E6
:10052A0041F10E949E030E94A303A0E0B0E080E094
:10053A009FE30E947A04DF01CB010E941D030E94FF
:10054A00AA030E94AF030E9418050E9407040E2FF7
:10055A000E9497030E94BF030E949E030E94700399
:10056A000E94CA040E94C5030E945C030E9492036F
:10057A00D4CFE885E03019F10E949703EEE2EC93BC
:10058A00E885E150E887EF5FD1F00E94C5030E9439
:10059A00B8030E949203E985FA856B857C850E94DF
:1005AA0007040E2F0E9497030E94BF030E94C503EF
:1005BA000E9470030E945C030E949203E1CFAE8105
:1005CA00BF81E0E0EC93198108812D9608950E947D
:1005DA00B3057B816A81F981E88177FB770F67FD33
:1005EA007160972F9E5781F078F0983190F4AA277E
:1005FA00BB27882708948795B795A7959A95D1F729
:10060A00EA23FB23682305C0E8947727EE27FF2710
:10061A0066276F77769508F4606877F9A991B9919A
:10062A0089919991EA17FB076807790797FB08955B
:10063A000E94B3050E949F050E94EC020E94A40535
:10064A0019F40E949A0509C0E6F70E949A05A0E0EB
:10065A00B0E080E89FE30E94730424960895BA9359
:10066A00AA93E991F991A991B991CD0105900D92B9
:10067A000020E1F7FC010895A4E1B0E00C94CA035C
:10068A000E94D301F30131963F010895E0917B0264
:10069A00F0917C0260917D0270917E02A0917702B6
:1006AA00B09178028091790290917A0208950E941D
:1006BA00B8050E9473040895A0E0B0E080E090E0DD
:1006CA000E94A9050895F301A7E7B2E00E948505F3
:1006DA00EA0FFB1F08950E948A050E9440040895AC
:1006EA00C698C798A5E0B0E00C94CA03A5E0B0E0AC
:1006FA000C94CA030E94AE01A3E0B0E00C94CA03B2
:10070A00A0E30E949A0188EC90E00197F1F708951E
:10071A00EE81FF81FA93EA930895E987FA876B8756
:10072A007C870895AE81BF811196AE83BF831197EE
:10073A000895AA81BB818C819D810895EDECFCEC22
:10074A006CEC7DE30E94CA040895EA83FB836C8300
:10075A007D830895EA81FB816C817D81A985BA85B3
:10076A008B859C850895E0E0F0E060E271E40E94E8
:10077A00CA040895E02FE05DEC93E02FF0E00895BD
:10078A00A985BA858B859C850895109639F080EDE8
:10079A0097E00197F1F7A8951197C9F7089530974F
:1007AA006040704009F070580895552342F450385B
:1007BA0011F4E0FF04C03196691F791F6BF050E80D
:1007CA00572711F45F93CFC05F3F31F0660F000CDB
:1007DA0057956795752F08955F9300200AF0CFC04B
:1007EA00C8C050E8192E1522880F991F9527550F52
:1007FA00879550E8072E0522660F771F7527550F34
:10080A0067950895689401C0E8945F93F2DF7038A1
:10081A0018F07F3F08F4A7C056E1571BAAF4519578
:10082A0058300EF4593030F0EFEFFFEF6FEF7FE7FB
:10083A0077F91AC077275523B9F0EE0FFF1F661F05
:10084A00771F5A95D1F710C07727583028F0EF2F25
:10085A00F62F672F5850F9CF552331F076956795C3
:10086A00F795E7955A95D1F700200AF441D15F919F
:10087A000895689401C0E894309760407040B1F0E0
:10088A00002426F0772312F4009432D1172E7EE149
:10089A00112032F07A95EE0FFF1F661F111CF9CF57
:1008AA00EF2FF62F612D5F938ADF5F9108954F93A3
:1008BA00AF01FD01DA01AB01BC01CA01402D012CD7
:1008CA00142E4F910895EA0FFB1F681F0895E095B3
:1008DA00F0956095EF5FFF4F6F4F08955F9381DF4B
:1008EA00903871F150E8152604C05F937ADF90388A
:1008FA0039F1703821F1572F591B2BF112F4D7DF38
:10090A00FACF583118F0AA27BB278827583028F081
:10091A00AB2FB82F88275850F9CF552329F0869541
:10092A00B795A7955A95D9F7502D512572F0CBDF77
:10093A0038F46795F795E795739513F420C0B7DFF8
:10094A003EDF5F910895D8F7FBCFEA1BFB0B680BDC
:10095A0051F010F40094BBDF662392F3EE0FFF1FF1
:10096A00661F7A95CBF7EE27FF27662777275F91D1
:10097A000895EFEFFFEF6FE77FEF5F910895EFEFD5
:10098A00FFEF6FE77FE75F9108955F932ADF703883
:10099A0051F3903841F301240894791F23F41CF38E
:1009AA0000203AF3ECCF0F921F932F933F934F936C
:1009BA00112722279927689FA0018F9F302D410D6B
:1009CA00591F6B9F300D411D591F8E9F27D0BF9F06
:1009DA0025D06A9F23D0BE9F1DD0AF9F1BD0AE9F4C
:1009EA00110D291F391F491F591FE32FF42F652F96
:1009FA00522F4F913F912F911F910F9066232AF00A
:100A0A00550FEE1FFF1F661F02C073954BF2CDDE16
:100A1A005F910895100D211D391F02C0200D311D4F
:100A2A00491F591F08955F93DCDE703821F41120A5
:100A3A000AF49FCFA4CF903809F495CF01240894E3
:100A4A00970B1BF4D4F30020F3CF792F1F932F9326
:100A5A003F934F93112411272227332744275527E1
:100A6A0090E2AE17BF078607410730F0AE1BBF0BF7
:100A7A00860B410B089401C08894551F221F331F0F
:100A8A00111CAA1FBB1F881F441F9A9551F7F90111
:100A9A00612D4F913F912F911F91662332F0550F8F
:100AAA00EE1FFF1F661F7A9543F27FDE5F9108955E
:100ABA0099239AF0772342F0971748F029F4AE1752
:100ACA00BF07860720F031F0989488940895989487
:100ADA00089408951894889408957723C2F797176D
:100AEA0098F3A9F7EA17FB07680788F399F3ECCF9D
:100AFA00F09560957095E195FF4F6F4F7F4F089580
:100B0A00EE0FFF1FEE0FFF1F08956F2F660F660B84
:100B1A00762F0895ED91FD916D917C91139708952B
:100B2A00ED93FD936D937C930895E881F9816A8131
:100B3A007B810895A881B9818A819B810895E88380
:100B4A00F9836A837B830895A083B1838283938325
:100B5A0008957A936A93FA93EA9308959A938A93F3
:100B6A00BA93AA930895182E862F612D192E972FBE
:100B7A00712D1B2EBF2FF12D1A2EAE2FE12D0895A8
:00000001FF
