:080000000C942A000C9400008E
:100008000C9400000C9400000C9400000C94000068
:100018000C9400000C9400000C9400000C94000058
:100028000C9495000C9400000C9400000C940000B3
:100038000C9400000C9400000C9400000C94000038
:100048000C9400000C9400000C940000F894EE2727
:10005800ECBBF1E0FBBFEBBFE5BF8DE0A2E0BB2747
:10006800ED938A95E9F780E098E0A0E6ED93019793
:10007800E9F7EFE5EDBFE8E0EEBFC0E6D2E00C94AB
:10008800DE00BA93AA931A930A9300E010E0EA817B
:10009800FB81309719F40FE310E03EC0AA81BB81C1
:1000A800119719F406E010E037C0AA81BB811297B6
:1000B80019F40BE510E030C0AA81BB81139719F43D
:1000C8000FE410E029C0AA81BB81149719F406E651
:1000D80010E022C0AA81BB81159719F40DE610E043
:1000E8001BC0AA81BB81169719F40DE710E014C054
:1000F800AA81BB81179719F407E010E00DC0AA8107
:10010800BB81189719F40FE710E006C0AA81BB81DC
:10011800199711F40FE610E0F80119810881249667
:1001280008950A921A92FA926A937A938A939A9302
:10013800AA93BA93EA93FA93EFB7EA9324970E94A3
:100148005E0109B31127D801EAE0F0E00E944201FC
:10015800EE83FF83EFEDE2BB5FD09F0125BB5FD04D
:10016800EFEEE2BBD801E4E6F0E00E944201DF01D5
:10017800EAE0F0E058D0AF0145BB51D0E7EFE2BB71
:10018800D801E4E6F0E04FD0E887F987E885E5BBD9
:1001980046D00E9465012A96E991EFBFF991E9914D
:1001A800B991A9919991899179916991F990199049
:1001B80009901895E0E0EABBEBBBE7BBE8BBEFEFC3
:1001C800E4BBE0E0E5BBEFEFE1BBE0E0E2BBECE085
:1001D800E3BFE0E0E2BFE9EFECBFE0E0EFBDEEBD7A
:1001E800EDBDECBDE7BDE6BDEBBDEABDE9BDE8BDD3
:1001F800E2BDE5BDE4BDE3BDE2E0E9BFE0E0E5BFA7
:10020800E4BFEAB9E0E8E8B9E0E0E0BFE6B9EDB993
:10021800E6BF7894FFCFFFCFAE81BF8132CFA4E194
:10022800B0E00C941C010E943D01EE83FF83F4CFE3
:10023800109639F080ED97E00197F1F7A89511979E
:10024800C9F70895F195E195F04008950024112427
:1002580090E1AA0FBB1F001C111C0E1A1F0A18F4EC
:100268000E0E1F1E01C0A1609A9599F7FD01D001DD
:10027800089512D0EBDF0EF4E5DF0895E894B7FF98
:1002880004C0A095B09511966894F7FDDBDFDEDF1A
:10029800FD010EF4D7DF0895E894F7FF02C0D2DF1E
:1002A8006894B7FF06C0A095B095119600F803941E
:1002B80000FA08955A934A933A932A931A930A9301
:1002C80008955D814C813B812A81198108810895B7
:00000001FF
