:060000000C9449000C9471
:1000060000000C9400000C9400000C9400000C946A
:1000160000000C9400000C9400000C9400000C945A
:1000260000000C9400000C9400000C9400000C944A
:1000360000000C9400000C9400000C9400000C943A
:1000460000000C9400000C9400000C940000102793
:10005600E80364000A00010000100001100001001E
:100066005A6168726120486F737365696E69000032
:1000760080C00F00600266000F006F0266000F006E
:100086007E02660002008D0276000000F894EE27DC
:10009600ECBBF1E0FBBFEBBFE5BF8DE0A2E0BB2709
:1000A600ED938A95E9F780E098E0A0E6ED93019755
:1000B600E9F7E8E7F0E085919591009761F0A59161
:1000C600B59105901590BF01F00105900D9201972D
:1000D600E1F7FB01F0CFEFE5EDBFE8E0EEBFC0E6EC
:1000E600D2E00C947600E0E0EABBEBBBE7BBE8BBF2
:1000F600E4BBE5BBE1BBE2BBE3BFE2BFECBFEFBDE8
:10010600EEBDEDBDECBDE7BDE6BDEBBDEABDE9BDAF
:10011600E8BDE2BDE5BDE4BDE3BDE9BFE5BFE4BFC3
:10012600EBB9E8E1EAB9E6E8E0BDE0E0E0BDE3E32B
:10013600E9B9E0E8E8B9E0E0E0BFE6B9EDB9E6BF65
:10014600A0E19BD00E946E014E2EE1E64E1618F0FD
:10015600EAE7E41538F4E1E44E1618F0EAE5E415AA
:1001660008F403C00E94870129C0E5E3E41591F471
:100176000E94870154D0E0E0EA93A0E043D0A0E6D5
:10018600B2E070D0E0E0EA93A1E03CD0AFE6B2E0A6
:1001960069D014C0E6E3E41559F40E9487010E9471
:1001A6008D01AEE7B2E00E9479010E948D0106C082
:1001B600E7E3E41519F40E94870131D0C3CFFFCFDE
:1001C600AA93E5B3EF70AE2FE881E07FEA2BE5BB9B
:1001D6008DE08A95F1F7AA9A8DE08A95F1F7AA98AB
:1001E6008DE08A95F1F70C947701AA93A881E8DF50
:1001F600E881E295E883A881E3DF85E88A95F1F74F
:100206000C947701AA93E881F0E0E357FD4FE08173
:10021600A981AE0FEADF7980688022960895A2E070
:100226000E949301ACE0E1DFA1E00E949301E0E0CF
:100236006E2E7E2E0895AA93A881AA3011F0791405
:1002460050F0E0E0EA936394A62DDCDFA881AA30A3
:1002560011F40C9477017394A89AA881C6DFA89824
:100266000C947701BA93AA931A930E94990119F0F4
:10027600A12FE1DFFACF0C948401AA93E4B3E06FD7
:10028600E4BBA29AA09AA19AAA98A898A99898803D
:10029600E881E058E0938F02E881E054E093900211
:1002A600A4E1B0E00E94A9010E94A1010E94A1015F
:1002B6000E94A101A0E284DF88EC90E00197F1F7AB
:1002C600A8E293DFA4E091DFA5E88FDFA6E08DDF4B
:1002D600A6DF0C9477015F9BFECFECB10895AA933D
:1002E6005D9BFECFE881ECB921960895BA93AA9357
:1002F6001A930E94990119F0A12FF1DFFACFAAE013
:10030600EEDF188123960895A42D0E941E01A42DC8
:100316000C947201AAE00E947201ADE00C94720185
:100326000E94F800A3E0B0E00C94A901A981BA816B
:10033600ED91A983BA831E2FE0300895A0E30E94B1
:10034600E30088EC90E00197F1F70895109639F0F4
:1003560080ED97E00197F1F7A8951197C9F70895F1
:00000001FF
