:040000000C943D001F
:100004000C9400000C9400000C9400000C9400006C
:100014000C9400000C9400000C946A000C940000F2
:100024000C9400000C9400000C9400000C9400004C
:100034000C9400000C9400000C9400000C9400003C
:100044000C9400000C9400000C9400000C9400002C
:1000540000005361647261486569646172690000FB
:1000640080C00100050054000D006002560002002B
:100074006D0264000000F894EE27ECBBF1E0FBBFD6
:10008400EBBFE5BF8DE0A2E0BB27ED938A95E9F7CE
:1000940080E098E0A0E6ED930197E9F7E6E6F0E06A
:1000A40085919591009761F0A591B5910590159072
:1000B400BF01F00105900D920197E1F7FB01F0CF2C
:1000C400EFE5EDBFE8E0EEBFC0E6D2E00C948B00B4
:1000D4000A921A92FA926A937A938A939A93AA93B7
:1000E400BA93EA93FA93EFB7EA935394E0E2E515EF
:1000F40009F45524C8D0E991EFBFF991E991B99178
:10010400A9919991899179916991F990199009909E
:1001140018952A97E0E2EE83E0E0EF83E0E1E887D8
:10012400E0E0E98700E612E02CE030E040EF5FEF2A
:10013400EABBEBBBE7BBE8BBEFEFE4BBE0E0E5BB4E
:10014400EFEFE1BBE0E0E2BBE3BFE2BFECBFEFBD3A
:10015400ECE0EEBDE0E0EDBDECBDE7BDE6BDEAE7F9
:10016400EBBDE2E1EABDE0E0E9BDE8BDE2BDE5BD2D
:10017400E4BDE3BDE0E1E9BFE0E0E5BFE4BFEAB927
:10018400E0E8E8B9E0E0E0BFE6B9EDB9E6BFA0E138
:1001940098D07894E0E0EC83ED83AC81BD81A21724
:1001A400B307F4F5E52DF0E0AFE0B0E00E94AB0159
:1001B400EA1BFB0BAC81BD81EA1BFB0BEA83FB83CF
:1001C400E0E0E883E983AB81AA232AF4AA81BB8116
:1001D4004A175B070CF008C0E885F9859DD0E1E07B
:1001E400F0E0E883F98308C0AA81BB81A417B507AE
:1001F4001CF4EE81FF8190D0EA81EA93A98136D084
:10020400F9013197AC81BD81EA1BFB0BE00FF11FB3
:10021400A08143D0EC81FD813196EC83FD83BDCF79
:10022400A2E3B0E00E94A101B5CFFFCFAA93E5B34A
:10023400EF70AE2FE881E07FEA2BE5BB8DE08A9575
:10024400F1F7AA9A8DE08A95F1F7AA988DE08A953C
:10025400F1F760C0AA93A881E9DFE881E295E88319
:10026400A881E4DF85E88A95F1F754C0AA93E88170
:10027400F0E0E359FD4FE081A981AE0FEBDF498047
:10028400788022960895A2E04ED0ACE0E3DFA1E0AE
:100294004AD0E0E07E2E4E2E0895AA93A881AA307B
:1002A40011F0461440F0E0E0EA937394A72DDEDFEA
:1002B400A881AA3079F14394A89AA881CBDFA898A1
:1002C40029C0AA93E4B3E06FE4BBA29AA09AA19ACE
:1002D400AA98A898A9986880E881E058E0936F02EA
:1002E400E881E054E0937002A4E1B0E00E94A1012F
:1002F4001FD01ED01DD0A0E299DF88EC90E00197BA
:10030400F1F7A8E2A7DFA4E0A5DFA5E8A3DFA6E054
:10031400A1DFB9DF21960895AA81BB81EA0FFB1FF3
:10032400EA83FB83089596DFA3E0B0E00C94A10177
:10033400A0E37CDF88EC90E00197F1F70895109634
:1003440039F0A89580ED97E00197F1F71197C9F777
:1003540008951B2EBF2FF12D1A2EAE2FE12D0895D7
:00000001FF
