:0C0000000C9449000C9400000C940000CB
:10000C000C9400000C9400000C9400000C94000064
:10001C000C9400000C9400000C9400000C94000054
:10002C000C9400000C9400000C9400000C94000044
:10003C000C9400000C9400000C9400000C94000034
:10004C000C9400000C9400001027E80364000A00D4
:10005C00010000100001100001005A61687261205B
:10006C00486F737365696E69000080C00F00600291
:10007C0066000F006F0266000F007E026600020031
:10008C008D0276000000F894EE27ECBBF1E0FBBF8C
:10009C00EBBFE5BF8DE0A2E0BB27ED938A95E9F7B6
:1000AC0080E098E0A0E6ED930197E9F7E8E7F0E04F
:1000BC0085919591009761F0A591B591059015905A
:1000CC00BF01F00105900D920197E1F7FB01F0CF14
:1000DC00EFE5EDBFE8E0EEBFC0E6D2E00C947600B1
:1000EC00E0E0EABBEBBBE7BBE8BBE4BBE5BBE1BBD9
:1000FC00E2BBE3BFE2BFECBFEFBDEEBDEDBDECBDBF
:10010C00E7BDE6BDEBBDEABDE9BDE8BDE2BDE5BDC1
:10011C00E4BDE3BDE9BFE5BFE4BFEBB9E8E1EAB993
:10012C00E6E8E0BDE0E0E0BDE3E3E9B9E0E8E8B92A
:10013C00E0E0E0BFE6B9EDB9E6BFA0E19ED00E94D9
:10014C0071014E2EE0E34E1618F0E9E3E41508F4C5
:10015C0003C00E948A0132C0EEE6E41519F0EEE409
:10016C00E41591F40E948A015AD0E0E0EA93A0E0F1
:10017C0049D0A0E6B2E076D0E0E0EA93A1E042D02C
:10018C00AFE6B2E06FD01AC0EDE6E41519F0EDE47D
:10019C00E41559F40E948A010E949001AEE7B2E086
:1001AC000E947C010E94900109C0E3E6E41519F05D
:1001BC00E3E4E41519F40E948A0131D0C0CFFFCFDB
:1001CC00AA93E5B3EF70AE2FE881E07FEA2BE5BB95
:1001DC008DE08A95F1F7AA9A8DE08A95F1F7AA98A5
:1001EC008DE08A95F1F70C947A01AA93A881E8DF47
:1001FC00E881E295E883A881E3DF85E88A95F1F749
:10020C000C947A01AA93E881F0E0E357FD4FE0816A
:10021C00A981AE0FEADF7980688022960895A2E06A
:10022C000E949601ACE0E1DFA1E00E949601E0E0C3
:10023C006E2E7E2E0895AA93A881AA3011F07914FF
:10024C0050F0E0E0EA936394A62DDCDFA881AA309D
:10025C0011F40C947A017394A89AA881C6DFA8981B
:10026C000C947A01BA93AA931A930E949C0119F0E8
:10027C00A12FE1DFFACF0C948701AA93E4B3E06FCE
:10028C00E4BBA29AA09AA19AAA98A898A998988037
:10029C00E881E058E0938F02E881E054E09390020B
:1002AC00A4E1B0E00E94AC010E94A4010E94A40150
:1002BC000E94A401A0E284DF88EC90E00197F1F7A2
:1002CC00A8E293DFA4E091DFA5E88FDFA6E08DDF45
:1002DC00A6DF0C947A015F9BFECFECB10895AA9334
:1002EC005D9BFECFE881ECB921960895BA93AA9351
:1002FC001A930E949C0119F0A12FF1DFFACFAAE00A
:10030C00EEDF188123960895A42D0E942101A42DBF
:10031C000C947501AAE00E947501ADE00C94750176
:10032C000E94FB00A3E0B0E00C94AC01A981BA815F
:10033C00ED91A983BA831E2FE0300895A0E30E94AB
:10034C00E60088EC90E00197F1F70895109639F0EB
:10035C0080ED97E00197F1F7A8951197C9F70895EB
:00000001FF
