:040000000C94450017
:100004000C9400000C9400000C9400000C9400006C
:100014000C9400000C9400000C9400000C9400005C
:100024000C9400000C9400000C9400000C9400004C
:100034000C9400000C9400000C9400000C9400003C
:100044000C9400000C9400000C9400000C9400002C
:100054001027E80364000A000100001000011000EA
:100064000100416C6972657A6120417A697A69009C
:1000740080C00E00600266000E006E026600020080
:100084007C0274000000F894EE27ECBBF1E0FBBFA7
:10009400EBBFE5BF8DE0A2E0BB27ED938A95E9F7BE
:1000A40080E098E0A0E6ED930197E9F7E6E7F0E059
:1000B40085919591009761F0A591B5910590159062
:1000C400BF01F00105900D920197E1F7FB01F0CF1C
:1000D400EFE5EDBFE8E0EEBFC0E6D2E00C947200BD
:1000E400E0E0EBB9E8E1EAB9E6E8E0BDE0E0E0BD74
:1000F400E3E3E9B9E0E8E8B9E0E0E0BFE6B9EDB987
:10010400E6BFA0E198D022970E944B011E2FA12F99
:100114000E944F01E12FF0E0E334A0E0FA0711F46C
:100124005CD029C0EE34A0E0FA0749F40E946401CF
:10013400A0E6B2E00E9456010E9464011CC0E336AE
:10014400A0E0FA0781F4E0E0E883E983A881B981BB
:10015400589744F40E946401E881F9813196E88358
:10016400F983F4CF08C0ED34A0E0FA0721F435D0C8
:10017400AEE6B2E055D02296C6CFFFCFAA93E5B340
:10018400EF70AE2FE881E07FEA2BE5BB8DE08A9526
:10019400F1F7AA9A8DE08A95F1F7AA988DE08A95ED
:1001A400F1F70C945401AA93A881E8DFE881E29561
:1001B400E883A881E3DF85E88A95F1F70C9454017C
:1001C400AA93E881F0E0E458FD4FE081A981AE0FE5
:1001D400EADF5980488022960895A2E00E946A01CD
:1001E400ACE0E1DFA1E00E946A01E0E04E2E5E2E69
:1001F4000895AA93A881AA3011F0571450F0E0E0B2
:10020400EA934394A42DDCDFA881AA3011F40C9462
:1002140054015394A89AA881C6DFA8980C94540159
:10022400BA93AA931A930E94700119F0A12FE1DFE7
:10023400FACF0C946101AA93E4B3E06FE4BBA29AF1
:10024400A09AA19AAA98A898A9987880E881E058D9
:10025400E0937E02E881E054E0937F02A4E1B0E001
:100264000E9480010E9478010E9478010E94780116
:10027400A0E284DF88EC90E00197F1F7A8E293DF35
:10028400A4E091DFA5E88FDFA6E08DDFA6DF0C9464
:1002940054015F9BFECFECB10895AA935D9BFECF02
:1002A400E881ECB921960895BA93AA931A930E940F
:1002B400700119F0A12FF1DFFACFAAE0EEDF188167
:1002C40023960895AAE00E944F01ADE00C944F01DB
:1002D4000E94D500A3E0B0E00C948001A981BA810A
:1002E400ED91A983BA831E2FE0300895A0E30E9404
:1002F400C00088EC90E00197F1F70895109639F06A
:10030400A89580ED97E00197F1F71197C9F7089543
:00000001FF
