:100000000C9450000C9400000C9400000C94000020
:100010000C9400000C9400000C9400000C94000060
:100020000C9400000C9400000C9400000C94000050
:100030000C9400000C9400000C9400000C94000040
:100040000C9400000C9400000C9400000C94000030
:100050000C9400001027E80364000A00010000105F
:100060000001100001007061726973612079616C98
:1000700073617661720070617269736179616C732A
:100080006176617280C00F00600266000600700237
:100090007600080077027C000200800284000000E5
:1000A000F894EE27ECBBF1E0FBBFEBBFE5BF8DE0C2
:1000B000A2E0BB27ED938A95E9F780E098E0A0E6FF
:1000C000ED930197E9F7E6E8F0E0859195910097C7
:1000D00061F0A591B59105901590BF01F0010590D3
:1000E0000D920197E1F7FB01F0CFEFE5EDBFE8E0FE
:1000F000EEBFC0E6D2E00C947D00E0E0EABBEBBBD3
:10010000E7BBE8BBEFEFE4BBE0E0E5BBE1BBE2BB94
:10011000E3BFE2BFECBFEFBDEEBDEDBDECBDE7BDA3
:10012000E6BDEBBDEABDE9BDE8BDE2BDE5BDE4BDB0
:10013000E3BDE9BFE5BFE4BFEBB9E8E1EAB9E6E852
:10014000E0BDE0E0E0BDE3E3E9B9E0E8E8B9E0E024
:10015000E0BFE6B9EDB9E6BFA0E1DAD0E0E0EA93AE
:10016000A0E095D00E94B6015E2EE3E4E51519F0FB
:10017000E3E6E51519F40E94C10161C0EDE4E5155F
:1001800019F0EDE6E51589F40E94C101E0E0EA937B
:10019000A0E07DD0A0E7B2E0AAD0E0E0EA93A1E041
:1001A00076D0A7E7B2E0A3D04AC0EEE4E51519F097
:1001B000EEE6E515E9F4A52D0E94BA01A4E6B0E04B
:1001C0000E94DE010E94CA0110E0E12FF0E0E05A37
:1001D000FD4FE081E03049F0E12FF0E0E05AFD4FC3
:1001E000A0810E94BA011F5FF0CF0E94CA0127C000
:1001F000E0E3E515D9F0E1E3E515C1F0E2E3E5154B
:10020000A9F0E3E3E51591F0E4E3E51579F0E5E322
:10021000E51561F0E6E3E51549F0E7E3E51531F0B2
:10022000E8E3E51519F0E9E3E51549F4A52D0E9489
:10023000BA01A52D45D0A4E6B0E00E94DE01A4EFEE
:10024000B1E00E94DE018ECFFFCFAA93E5B3EF703D
:10025000AE2FE881E07FEA2BE5BB8DE08A95F1F7D0
:10026000AA9A8DE08A95F1F7AA988DE08A95F1F720
:100270000C94BF01AA93A881E8DFE881E295E883A6
:10028000A881E3DF85E88A95F1F70C94BF01AA9372
:10029000E881F0E0E058FD4FE081A981AE0FEADF90
:1002A0004980788022960895A2E00E94D001ACE0B7
:1002B000E1DFA1E00E94D001E0E07E2E4E2E089505
:1002C000AA93A881AA3011F0461450F0E0E0EA9316
:1002D0007394A72DDCDFA881AA3011F40C94BF0120
:1002E0004394A89AA881C6DFA8980C94BF01BA933A
:1002F000AA931A93A981BA81ED91A983BA831E2F7B
:10030000E03019F0A12FDCDFF5CF18812396089596
:10031000AA93E4B3E06FE4BBA29AA09AA19AAA9828
:10032000A898A9986880E881E058E0938202E88163
:10033000E054E0938302A4E1B0E00E94DE010E9459
:10034000D6010E94D6010E94D601A0E27EDF88EC91
:1003500090E00197F1F7A8E28DDFA4E08BDFA5E83C
:1003600089DFA6E087DFA0DF0C94BF015F9BFECF93
:10037000ECB10895AA935D9BFECFE881ECB921967C
:100380000895A52D0E94BA01A4E6B0E00E94DE0106
:100390000C945401ADE00E94BA01AAE00C94BA0199
:1003A0000E943A01A3E0B0E00C94DE01A0E30E94B9
:1003B000250188EC90E00197F1F70895109639F047
:1003C00080ED97E00197F1F7A8951197C9F7089587
:00000001FF
